:020000020000FC
:040000000C94180044
:10002C000C9439000FEF0DBF08E00EBF0FE304B9BD
:10003C0000E005B900E007B900E00AB904EF00934D
:10004C00890004E20093880000E0009380000CE03B
:10005C000093810000916F00026000936F0010E02C
:10006C0040E020E011C00F930FB70F9313950F9141
:10007C000FBF0F9178941895F0E0EAEFD0E0D150D3
:10008C00E040F040E0F708957894309925C031991C
:10009C002AC032992EC0339933C04F9938C04E992B
:1000AC003FC04D9946C04C994DC034990C941102E7
:1000BC0035990C941A02513031F0403031F0423005
:1000CC0031F0413031F00C94C5000C94B1000C941B
:1000DC00D4000C947201D8CFCFDF5C9800E091E093
:1000EC004030E9F1D1CFC8DF01E0A1E04030B9F1F7
:1000FC00CBCF0E94420002E0B1E0403081F1C4CF8E
:10010C000E94420003E0C1E0403049F1BDCF0E94A3
:10011C00420000E0913009F092E0403001F1B4CFA0
:10012C000E94420001E0A13009F0A2E04030B9F099
:10013C00ABCF0E94420002E0B13009F0B2E0403097
:10014C0071F0A2CF0E94420003E0C13009F0C2E07E
:10015C00403029F099CF10E040E00C944A0010E0B8
:10016C00201721F0201740F020171CF442E00C94CB
:10017C004A0041E00C944A0042E00C944A002C9A4C
:10018C00153009F001C02E9A1A3011F00C944A0067
:10019C002C982E9850E010E00C944A00133011F07B
:1001AC000C944A00203061F02130B9F1223021F05A
:1001BC00233021F00C944A000C943B010C945D010B
:1001CC00A13099F0B130C9F0C130E1F0C230D1F0BA
:1001DC00B23099F0A23049F09130C9F09230B9F0B8
:1001EC002A95A0E010E00C94B10051E02395A0E01A
:1001FC0010E001E005B90C944A0010E0239525B9F4
:10020C000C944A0010E0239525B90C944A002395D0
:10021C0013E0A0E041E00C944A00B13099F0C130F9
:10022C00C9F0C230B9F0B23069F0A130C1F0A230DF
:10023C00B1F09130A1F0923091F02A95B0E010E03D
:10024C000C94B10051E02395B0E010E002E005B948
:10025C000C944A0010E0239525B90C944A00239580
:10026C0013E0B0E041E00C944A00C13091F0C23090
:10027C0081F0B130B1F0B230A1F0A13091F0A230E8
:10028C0081F0913071F0923061F0C0E010E00C948C
:10029C00B10051E02395C0E010E003E005B90C94E7
:1002AC004A00239513E0C0E041E00C944A00B130C1
:1002BC0071F0B23061F0A13051F0A23041F09130C8
:1002CC0031F0923021F0C0E010E00C94B10013E05A
:1002DC00C0E041E00C944A00133011F00C944A0039
:1002EC00233061F02230B9F1213021F0203021F09F
:1002FC000C944A000C94D9010C94FC01B13099F087
:10030C00B23089F0A130B9F0A230A9F09130C1F02F
:10031C009230B1F0C130C9F0C230B9F02395B0E0E1
:10032C0010E00C94B10051E02A95B0E010E002E02E
:10033C0005B90C944A0010E02A9525B90C944A0092
:10034C0010E02A9525B90C944A002A9513E0B0E0E8
:10035C0042E00C944A00A13099F0A23089F091301F
:10036C00B9F09230A9F0B130C1F0B230B1F0C13077
:10037C00A1F0C23091F02395A0E010E00C94B100F4
:10038C0051E02A95A0E010E001E005B90C944A0078
:10039C0010E02A9525B90C944A002A9513E0A0E0A8
:1003AC0042E00C944A00913099F0923089F0A130DF
:1003BC00B9F0A230A9F0B13099F0B23089F0C13067
:1003CC0079F0C23069F0239590E010E00C94B10004
:1003DC0051E02A9590E010E000E005B90C944A0039
:1003EC002A9513E090E042E00C944A00A13071F0A1
:1003FC00A23061F0B13051F0B23041F0C13031F087
:10040C00C23021F090E010E00C94B10013E090E0C9
:10041C0042E00C944A00513011F00C944A0044997B
:10042C00FACF1AE00C944A002C982E9850E010E069
:04043C000C944A00D2
:00000001FF
