:020000020000FC
:040000000C94180044
:10002C000C943A000FEF0DBF08E00EBF0FE004B9BF
:10003C0000E005B900E007B900E00AB90FEF0BB911
:10004C0004EF0093890004E20093880000E0009321
:10005C0080000CE00093810000916F00026000931F
:10006C006F0010E040E011C00F930FB70F93139582
:10007C000F910FBF0F9178941895F0E0EAEFD0E054
:10008C00D150E040F040E0F708957894309925C0C5
:10009C0031992BC0329930C0339935C037993AC059
:1000AC004E9941C04D9948C04C994FC034990C940D
:1000BC00DD0135990C94DF01513031F0403031F0D5
:1000CC00423031F0413031F00C94C8000C94B40043
:1000DC000C94D7000C945A01D8CF0E9443005C9822
:1000EC0000E091E04030F1F1D0CF0E94430001E0FC
:1000FC00A1E04030B9F1C9CF0E94430002E0B1E069
:10010C00403081F1C2CF0E94430003E0C1E0403097
:10011C0049F1BBCF0E94430000E0913009F092E01E
:10012C00403001F1B2CF0E94430001E0A13009F050
:10013C00A2E04030B9F0A9CF0E94430002E0B130F8
:10014C0009F0B2E0403071F0A0CF0E94430003E010
:10015C00C13009F0C2E0403029F097CF10E040E008
:10016C000C944B0010E0201721F0201740F02017C2
:10017C001CF442E00C944B0041E00C944B0042E028
:10018C000C944B002C9A153009F001C02E9A1A30A1
:10019C0011F00C944B002C982E9850E010E00C941D
:1001AC004B00113011F00C944B00203041F02130F9
:1001BC0091F1223011F00C944B000C94E300A1301F
:1001CC0099F0B130C1F0C130D9F0C230C9F0B230C1
:1001DC0091F0A23049F09130C1F09230B1F02395FA
:1001EC00A0E010E00C94B40051E0A0E010E001E0BD
:1001FC0005B90C944B0010E0239525B90C944B00D9
:10020C0010E0239525B90C944B00239510E0A0E049
:10021C0041E00C944B00B13099F0C130C1F0C230C8
:10022C00B1F0B23069F0A130B9F0A230A9F0913040
:10023C0099F0923089F02395B0E010E00C94B40062
:10024C0051E0B0E010E002E005B90C944B0010E076
:10025C00239525B90C944B00239510E0B0E041E0B8
:10026C000C944B00C13099F0C23089F0B130B1F030
:10027C00B230A1F0A13091F0A23081F0913071F048
:10028C00923061F02395C0E010E00C94B40051E082
:10029C00C0E010E003E005B90C944B00239510E08E
:1002AC00C0E041E00C944B00133011F00C944B0067
:1002BC00233041F0223091F1213011F00C944B009D
:1002CC000C94BB01B13099F0B23089F0A130B1F08F
:1002DC00A230A1F09130B9F09230A9F0C130C1F048
:1002EC00C230B1F02A95B0E010E00C94B40051E0AB
:1002FC00B0E010E002E005B90C944B0010E02A9538
:10030C0025B90C944B0010E02A9525B90C944B00A0
:10031C002A9510E0B0E042E00C944B00A13099F02B
:10032C00A23089F09130B1F09230A1F0B130B9F037
:10033C00B230A9F0C13099F0C23089F02A95A0E012
:10034C0010E00C94B40051E0A0E010E001E005B91D
:10035C000C944B0010E02A9525B90C944B002A956F
:10036C0010E0A0E042E00C944B00913099F09230F8
:10037C0089F0A130B1F0A230A1F0B13091F0B230DF
:10038C0081F0C13071F0C23061F02A9590E010E03C
:10039C000C94B40051E090E010E000E005B90C942E
:1003AC004B002A9510E090E042E00C944B000C942A
:0E03BC004B002C982E9850E010E00C944B0053
:00000001FF
