:020000020000FC
:040000000C94180044
:10002C000C943C000FEF0DBF08E00EBF0FE004B9BD
:10003C0000E005B900E007B900E008B900E00AB932
:10004C0000E00BB904EF0093890004E200938800F0
:10005C0000E0009380000CE00093810000916F00A1
:10006C00026000936F0010E040E011C00F930FB7D7
:10007C000F9313950F910FBF0F9178941895F0E093
:10008C00EAEFD0E0D150E040F040E0F708957894EA
:10009C00309925C031992AC032992FC0339934C078
:1000AC00379939C04E9940C04D9947C04C994EC0B4
:1000BC0034990C94DE0135990C94E001513031F0F7
:1000CC00403031F0423031F0413031F00C94C90005
:1000DC000C94B5000C94D8000C945B01D8CF0E9402
:1000EC00450000E091E04030F1F1D1CF0E94450095
:1000FC0001E0A1E04030B9F1CACF0E94450002E016
:10010C00B1E0403081F1C3CF0E94450003E0C1E073
:10011C00403049F1BCCF0E94450000E0913009F01D
:10012C0092E0403001F1B3CF0E94450001E0A130D4
:10013C0009F0A2E04030B9F0AACF0E94450002E0DD
:10014C00B13009F0B2E0403071F0A1CF0E9445000F
:10015C0003E0C13009F0C2E0403029F098CF10E044
:10016C0040E00C944D0010E0201721F0201728F0EF
:10017C00201734F442E00C944D0041E00C944D00F7
:10018C0042E00C944D002C9A153009F001C02E9AC7
:10019C001A3011F00C944D002C982E9850E010E071
:1001AC000C944D00133011F00C944D00203041F0A4
:1001BC00213091F1223011F00C944D000C94E4009C
:1001CC00A13099F0B130C1F0C130D9F0C230C9F0D2
:1001DC00B23091F0A23049F09130C1F09230B1F0D0
:1001EC002395A0E010E00C94B50051E0A0E010E0E5
:1001FC0001E005B90C944D0010E0239525B90C9441
:10020C004D0010E0239525B90C944D00239510E07A
:10021C00A0E041E00C944D00B13099F0C130C1F038
:10022C00C230B1F0B23069F0A130B9F0A230A9F00F
:10023C00913099F0923089F02395B0E010E00C9455
:10024C00B50051E0B0E010E002E005B90C944D00AF
:10025C0010E0239525B90C944D00239510E0B0E0E7
:10026C0041E00C944D00C13099F0C23089F0B130AE
:10027C00B1F0B230A1F0A13091F0A23081F0913008
:10028C0071F0923061F02395C0E010E00C94B50051
:10029C0051E0C0E010E003E005B90C944D0023954B
:1002AC0010E0C0E041E00C944D00133011F00C94C0
:1002BC004D00233041F0223091F1213011F00C949B
:1002CC004D000C94BC01B13099F0B23089F0A130E2
:1002DC00B1F0A230A1F09130B9F09230A9F0C13058
:1002EC00C1F0C230B1F02A95B0E010E00C94B5002A
:1002FC0051E0B0E010E002E005B90C944D0010E0C4
:10030C002A9525B90C944D0010E02A9525B90C942A
:10031C004D002A9510E0B0E042E00C944D00A13065
:10032C0099F0A23089F09130B1F09230A1F0B13057
:10033C00B9F0B230A9F0C13099F0C23089F02A95E9
:10034C00A0E010E00C94B50051E0A0E010E001E05A
:10035C0005B90C944D0010E02A9525B90C944D006C
:10036C002A9510E0A0E042E00C944D00913099F0F9
:10037C00923089F0A130B1F0A230A1F0B13091F0FF
:10038C00B23081F0C13071F0C23061F02A9590E04A
:10039C0010E00C94B50051E090E010E000E005B9DD
:1003AC000C944D002A9510E090E042E00C944D0026
:1003BC000C944D002C982E9850E010E00C944D00AD
:00000001FF
